:020000040000fa
:10000000f0ff02200d040000f9060000fb060000ce
:10001000ff060000010700000307000000000000c9
:10002000000000000000000000000000f7060000d3
:10003000fd06000000000000f7060000f7060000c3
:10004000f7060000f7060000f7060000f7060000bc
:10005000f7060000f7060000f7060000f7060000ac
:10006000f7060000f7060000f7060000f70600009c
:10007000f7060000f7060000f7060000f70600008c
:10008000f7060000f7060000f7060000f70600007c
:10009000f7060000f7060000f7060000f70600006c
:1000a000f7060000f7060000f7060000f70600005c
:1000b000f7060000f7060000f7060000f70600004c
:1000c000f7060000f7060000f7060000f70600003c
:1000d000f7060000f7060000f7060000f70600002c
:1000e000f7060000f7060000000000000000000016
:1000f00000000000f7060000f7060000f706000009
:10010000f7060000f7060000f7060000f7060000fb
:10011000f7060000f7060000f7060000f7060000eb
:10012000f7060000f7060000f7060000f7060000db
:10013000f7060000f7060000f7060000f7060000cb
:10014000f7060000f7060000f7060000f7060000bb
:10015000f7060000f7060000f7060000f7060000ab
:10016000f7060000f7060000f7060000f70600009b
:10017000f7060000f7060000f7060000f70600008b
:10018000f7060000f7060000f7060000f70600007b
:10019000f7060000f7060000f7060000f70600006b
:1001a000f7060000f7060000f7060000f70600005b
:1001b000f7060000f7060000f7060000f70600004b
:1001c000f7060000f7060000f7060000f70600003b
:1001d000f7060000f7060000f7060000f70600002b
:1001e000f7060000f7060000f7060000f70600001b
:1001f000f7060000f7060000f7060000f70600000b
:10020000f7060000f7060000f7060000f7060000fa
:10021000f7060000f7060000f7060000f7060000ea
:10022000f7060000f7060000f7060000f7060000da
:10023000f7060000f7060000f7060000f7060000ca
:10024000f7060000f7060000f7060000f7060000ba
:10025000f7060000f7060000f7060000f7060000aa
:04026000f70600009d
:020000040000fa
:10026400f8b500bff8bc08bc9e467047dd05000029
:10027400f8b500bff8bc08bc9e467047b90500003d
:020000040000fa
:100284002de9f041adf5167d002000f007fa16ad1a
:100294004ff4007422460021284600f019fa2c4f2e
:1002a4003a462146284600f00bfa2a4c12ae94e84e
:1002b4000f0007c633700eae4ff0ff38cdf838800c
:1002c400cdf83c80cdf84080cdf8448012a800f0f1
:1002d40007fa421c12a9304600f0c8f90df1240cab
:1002e40010340fccace80f002368acf80030cdf824
:1002f4001680cdf81a80cdf81e80adf822800df15d
:10030400040c09ac0fccace80f002368acf8003047
:100314001eac96e80f0084e80f0026ae01ac0fccab
:100324000fc694e80f0086e80f000b4b5f614ff493
:1003340025429a8096ae2c46c5f5000505f5804504
:100344002919204600f0ecf81034b442f8d1fee745
:0c035400004080004c060000004000410a
:020000040000fa
:10036000234b00221a7403f50063224a9a625a68ea
:1003700012f0100ffbd1204b4222c3f88420d3f897
:10038000842012f0400ffad01c4b00229a6377228f
:100390005a63da6b12f0040ffbd1184b022283f878
:1003a0003020da6b12f0020ffbd1144a136c03f009
:1003b0000303032bfad1124b01225a71da7812f09f
:1003c000010ffbd00c4b0f4a1a625a6812f0040f4f
:1003d000fbd1094b0c4a5a625a6812f0080ffbd144
:1003e000074b6ff07f421a6140f2ff725a6170470b
:1003f0000014004006013000001c004000100040c6
:0c04000000080040070101000701020095
:020000040000fa
:10040c0008b51b4b98471b4b9847eff3108172b6fe
:10041c00194ad2f8883043f47003c2f88830bff31d
:10042c004f8fbff36f8f01b962b6144c20236360fa
:10043c0000f02ef8124b23f07f030f4a9360114b00
:10044c009847a36823f00103a3602346da6812f0ef
:10045c00010ffbd1094b5a6842f004025a60012289
:10046c009a60094b9847094b9847fff705fffee741
:10047c00050700000507000000ed00e000600041ea
:10048c0000000000710500000507000005070000d2
:020000040000fa
:10049c001e4b1f4a9342f0b438bf002103d203f81d
:1004ac00011b9342fbd11b4ad2e9000150ea010324
:1004bc004ff0000610d09468034602f10c076cb99b
:1004cc0021b1014403f8016b9942fbd13a46d2e9c0
:1004dc00000150ea0103eed1f0bc704759b101f1b3
:1004ec000c030c38801a1a443b461c1813f8015b99
:1004fc0025709342f9d111f0030318bf012303ebcc
:10050c00910107eb81073a46e1e700bf00000020ac
:08051c0000000020f8050000ba
:020000040000fa
:10052400f8b5104b1d88104b00221a8011f00f0fe4
:1005340001d00020f8bdadb20c460646202000f0e4
:10054400a3f806f110073346a11bca1853f8040b8d
:100554001060bb42f9d105f0300000f095f801209d
:0c056400e8e700bf00400041200000203c
:020000040000fa
:1005700070b50d4d0d4c641ba4100026a64209d188
:100580000b4d0c4cfff76efe641ba4100026a64218
:1005900005d170bd55f8043b98470136eee755f894
:1005a000043b98470136f2e7700200007002000039
:0805b00070020000740200005b
:020000040000fa
:1005b80010b5054c237833b9044b13b10448aff395
:1005c80000800123237010bd0000002000000000ff
:1005d8000000000008b5034b1bb103490348aff303
:1005e800008008bd0000000004000020000000009a
:020000040000fa
:1005f800000000201c000000000000002000002077
:1006080002000000000000001c00002004000000a0
:10061800000000000000000000000000222222224a
:020000040000fa
:10062800074ad36823f4e0631b041b0c43f0bf6341
:1006380043f40033d360bff35f8f62b6704700bfe7
:0406480000ed00e0e1
:020000040000fa
:10064c003139322e3136382e312e3139000000003e
:10065c0030303a30343a32453a31433a41303a301c
:04066c00420000bf89
:020000040000fa
:100670000a44914200f1ff3300d1704710b511f8e0
:0c068000014b03f8014f9142f9d110bd6d
:020000040000fa
:10068c00034a13889bb223f0300318431080704741
:04069c0000400041d9
:020000040000fa
:1006a00008b500f007f8fff75bfe00f023f8fff74e
:0406b000bbff08bdc7
:020000040000fa
:1006b400024b40f204521a80704700bf00400041d0
:020000040000fa
:1006c40008b513460a461946fff7d0ff012008bdb6
:020000040000fa
:1006d40002440346934200d1704703f8011bf9e733
:020000040000fa
:1006e400034613f8012b002afbd1181a013870476e
:020000040000fa
:0206f40070474d
:020000040000fa
:0206f600fee71d
:020000040000fa
:0206f800fee71b
:020000040000fa
:0206fa00fee719
:020000040000fa
:0206fc00fee717
:020000040000fa
:0206fe00fee715
:020000040000fa
:02070000fee712
:020000040000fa
:02070200fee710
:020000040000fa
:0207040070473c
:020000040000fa
:0200000400807a
:044000003912003c35
:020000040000fa
:0200000400807a
:044004008000a82a66
:020000040000fa
:0200000400807a
:04400800ffffffffb8
:00000001FF
